{
  "_format": "hh-sol-artifact-1",
  "contractName": "Projects",
  "sourceName": "contracts/Projects.sol",
  "abi": [
    {
      "inputs": [
        {
          "internalType": "uint256",
          "name": "percentage",
          "type": "uint256"
        }
      ],
      "name": "addStage",
      "outputs": [],
      "stateMutability": "payable",
      "type": "function"
    },
    {
      "inputs": [
        {
          "internalType": "string",
          "name": "title",
          "type": "string"
        }
      ],
      "name": "createProject",
      "outputs": [],
      "stateMutability": "payable",
      "type": "function"
    },
    {
      "inputs": [
        {
          "internalType": "uint256",
          "name": "index",
          "type": "uint256"
        }
      ],
      "name": "getStage",
      "outputs": [
        {
          "components": [
            {
              "internalType": "uint256",
              "name": "percentage",
              "type": "uint256"
            }
          ],
          "internalType": "struct Projects.Stage",
          "name": "",
          "type": "tuple"
        }
      ],
      "stateMutability": "view",
      "type": "function"
    },
    {
      "inputs": [
        {
          "internalType": "address",
          "name": "",
          "type": "address"
        }
      ],
      "name": "projects",
      "outputs": [
        {
          "internalType": "string",
          "name": "title",
          "type": "string"
        },
        {
          "internalType": "string",
          "name": "state",
          "type": "string"
        },
        {
          "internalType": "uint256",
          "name": "stagesSize",
          "type": "uint256"
        }
      ],
      "stateMutability": "view",
      "type": "function"
    }
  ],
  "bytecode": "0x608060405234801561001057600080fd5b506105f6806100206000396000f3fe60806040526004361061003f5760003560e01c80631265467e1461004457806315ee4df1146100595780632e3250201461006c578063840e78fd146100a0575b600080fd5b610057610052366004610303565b6100cf565b005b61005761006736600461031c565b610110565b34801561007857600080fd5b5061008c610087366004610303565b61012f565b604051905181526020015b60405180910390f35b3480156100ac57600080fd5b506100c06100bb36600461038e565b6101d1565b60405161009793929190610404565b33600090815260208181526040808320600381018054855260028201909352908320849055815490926001929161010790849061043a565b90915550505050565b33600090815260208190526040902061012a8284836104ff565b505050565b604080516020810190915260008152336000908152602081905260409020600381015483106101ae5760405162461bcd60e51b815260206004820152602160248201527f7468657265206973206e6f74206120737461676520696e2074686520696e64656044820152600f60fb1b606482015260840160405180910390fd5b600092835260020160209081526040928390208351918201909352915482525090565b6000602081905290815260409020805481906101ec90610477565b80601f016020809104026020016040519081016040528092919081815260200182805461021890610477565b80156102655780601f1061023a57610100808354040283529160200191610265565b820191906000526020600020905b81548152906001019060200180831161024857829003601f168201915b50505050509080600101805461027a90610477565b80601f01602080910402602001604051908101604052809291908181526020018280546102a690610477565b80156102f35780601f106102c8576101008083540402835291602001916102f3565b820191906000526020600020905b8154815290600101906020018083116102d657829003601f168201915b5050505050908060030154905083565b60006020828403121561031557600080fd5b5035919050565b6000806020838503121561032f57600080fd5b823567ffffffffffffffff8082111561034757600080fd5b818501915085601f83011261035b57600080fd5b81358181111561036a57600080fd5b86602082850101111561037c57600080fd5b60209290920196919550909350505050565b6000602082840312156103a057600080fd5b81356001600160a01b03811681146103b757600080fd5b9392505050565b6000815180845260005b818110156103e4576020818501810151868301820152016103c8565b506000602082860101526020601f19601f83011685010191505092915050565b60608152600061041760608301866103be565b828103602084015261042981866103be565b915050826040830152949350505050565b8082018082111561045b57634e487b7160e01b600052601160045260246000fd5b92915050565b634e487b7160e01b600052604160045260246000fd5b600181811c9082168061048b57607f821691505b6020821081036104ab57634e487b7160e01b600052602260045260246000fd5b50919050565b601f82111561012a57600081815260208120601f850160051c810160208610156104d85750805b601f850160051c820191505b818110156104f7578281556001016104e4565b505050505050565b67ffffffffffffffff83111561051757610517610461565b61052b836105258354610477565b836104b1565b6000601f84116001811461055f57600085156105475750838201355b600019600387901b1c1916600186901b1783556105b9565b600083815260209020601f19861690835b828110156105905786850135825560209485019460019092019101610570565b50868210156105ad5760001960f88860031b161c19848701351681555b505060018560011b0183555b505050505056fea264697066735822122092915039d5034eeeb3bb46c6d072a7c2c899137957cb7f12bde07d83e07791f564736f6c63430008140033",
  "linkReferences": {},
  "deployedLinkReferences": {}
}