{
  "_format": "hh-sol-artifact-1",
  "contractName": "Projects",
  "sourceName": "contracts/Projects.sol",
  "abi": [
    {
      "inputs": [
        {
          "internalType": "uint256",
          "name": "deadline",
          "type": "uint256"
        },
        {
          "internalType": "uint256",
          "name": "amount",
          "type": "uint256"
        }
      ],
      "name": "addStage",
      "outputs": [],
      "stateMutability": "payable",
      "type": "function"
    },
    {
      "inputs": [
        {
          "internalType": "string",
          "name": "title",
          "type": "string"
        }
      ],
      "name": "createProject",
      "outputs": [],
      "stateMutability": "payable",
      "type": "function"
    },
    {
      "inputs": [
        {
          "internalType": "uint256",
          "name": "index",
          "type": "uint256"
        }
      ],
      "name": "getStage",
      "outputs": [
        {
          "components": [
            {
              "internalType": "uint256",
              "name": "deadline",
              "type": "uint256"
            },
            {
              "internalType": "uint256",
              "name": "amount",
              "type": "uint256"
            }
          ],
          "internalType": "struct Projects.Stage",
          "name": "",
          "type": "tuple"
        }
      ],
      "stateMutability": "view",
      "type": "function"
    },
    {
      "inputs": [
        {
          "internalType": "address",
          "name": "",
          "type": "address"
        }
      ],
      "name": "projects",
      "outputs": [
        {
          "internalType": "string",
          "name": "title",
          "type": "string"
        },
        {
          "internalType": "string",
          "name": "state",
          "type": "string"
        },
        {
          "internalType": "uint256",
          "name": "stagesSize",
          "type": "uint256"
        }
      ],
      "stateMutability": "view",
      "type": "function"
    }
  ],
  "bytecode": "0x608060405234801561001057600080fd5b50610640806100206000396000f3fe60806040526004361061003f5760003560e01c806315ee4df1146100445780632e32502014610059578063840e78fd146100995780639f49cefb146100c8575b600080fd5b61005761005236600461032b565b6100db565b005b34801561006557600080fd5b5061007961007436600461039d565b6100fa565b604080518251815260209283015192810192909252015b60405180910390f35b3480156100a557600080fd5b506100b96100b43660046103b6565b6101a9565b6040516100909392919061042c565b6100576100d6366004610462565b6102db565b3360009081526020819052604090206100f5828483610522565b505050565b60408051808201909152600080825260208201523360009081526020819052604090206003810154831061017e5760405162461bcd60e51b815260206004820152602160248201527f7468657265206973206e6f74206120737461676520696e2074686520696e64656044820152600f60fb1b606482015260840160405180910390fd5b6000928352600201602090815260409283902083518085019094528054845260010154908301525090565b6000602081905290815260409020805481906101c49061049a565b80601f01602080910402602001604051908101604052809291908181526020018280546101f09061049a565b801561023d5780601f106102125761010080835404028352916020019161023d565b820191906000526020600020905b81548152906001019060200180831161022057829003601f168201915b5050505050908060010180546102529061049a565b80601f016020809104026020016040519081016040528092919081815260200182805461027e9061049a565b80156102cb5780601f106102a0576101008083540402835291602001916102cb565b820191906000526020600020905b8154815290600101906020018083116102ae57829003601f168201915b5050505050908060030154905083565b33600090815260208181526040808320600381018054855260028201909352818420869055825484529083206001908101859055825491939092916103219084906105e3565b9091555050505050565b6000806020838503121561033e57600080fd5b823567ffffffffffffffff8082111561035657600080fd5b818501915085601f83011261036a57600080fd5b81358181111561037957600080fd5b86602082850101111561038b57600080fd5b60209290920196919550909350505050565b6000602082840312156103af57600080fd5b5035919050565b6000602082840312156103c857600080fd5b81356001600160a01b03811681146103df57600080fd5b9392505050565b6000815180845260005b8181101561040c576020818501810151868301820152016103f0565b506000602082860101526020601f19601f83011685010191505092915050565b60608152600061043f60608301866103e6565b828103602084015261045181866103e6565b915050826040830152949350505050565b6000806040838503121561047557600080fd5b50508035926020909101359150565b634e487b7160e01b600052604160045260246000fd5b600181811c908216806104ae57607f821691505b6020821081036104ce57634e487b7160e01b600052602260045260246000fd5b50919050565b601f8211156100f557600081815260208120601f850160051c810160208610156104fb5750805b601f850160051c820191505b8181101561051a57828155600101610507565b505050505050565b67ffffffffffffffff83111561053a5761053a610484565b61054e83610548835461049a565b836104d4565b6000601f841160018114610582576000851561056a5750838201355b600019600387901b1c1916600186901b1783556105dc565b600083815260209020601f19861690835b828110156105b35786850135825560209485019460019092019101610593565b50868210156105d05760001960f88860031b161c19848701351681555b505060018560011b0183555b5050505050565b8082018082111561060457634e487b7160e01b600052601160045260246000fd5b9291505056fea26469706673582212200b3349107675b586fb46745b21d6d93db813b9b8eae3d3945a9a1de3664e32f164736f6c63430008140033",
  "linkReferences": {},
  "deployedLinkReferences": {}
}